{
  "_format": "hh-sol-artifact-1",
  "contractName": "Dispatcher",
  "sourceName": "contracts/Dispatcher.sol",
  "abi": [
    {
      "anonymous": false,
      "inputs": [
        {
          "indexed": true,
          "internalType": "uint256",
          "name": "id",
          "type": "uint256"
        },
        {
          "indexed": true,
          "internalType": "address",
          "name": "claimer",
          "type": "address"
        },
        {
          "indexed": false,
          "internalType": "uint256",
          "name": "amount",
          "type": "uint256"
        }
      ],
      "name": "AmountClaimed",
      "type": "event"
    },
    {
      "anonymous": false,
      "inputs": [
        {
          "indexed": true,
          "internalType": "uint256",
          "name": "id",
          "type": "uint256"
        },
        {
          "indexed": true,
          "internalType": "uint256",
          "name": "fundraiserId",
          "type": "uint256"
        },
        {
          "indexed": true,
          "internalType": "address",
          "name": "sender",
          "type": "address"
        },
        {
          "indexed": false,
          "internalType": "string",
          "name": "content",
          "type": "string"
        },
        {
          "indexed": false,
          "internalType": "uint256",
          "name": "timestamp",
          "type": "uint256"
        }
      ],
      "name": "CommentCreated",
      "type": "event"
    },
    {
      "anonymous": false,
      "inputs": [
        {
          "indexed": true,
          "internalType": "uint256",
          "name": "fundraiserId",
          "type": "uint256"
        },
        {
          "indexed": true,
          "internalType": "address",
          "name": "sender",
          "type": "address"
        },
        {
          "indexed": false,
          "internalType": "uint256",
          "name": "amount",
          "type": "uint256"
        },
        {
          "indexed": false,
          "internalType": "uint256",
          "name": "timestamp",
          "type": "uint256"
        }
      ],
      "name": "Contribution",
      "type": "event"
    },
    {
      "anonymous": false,
      "inputs": [
        {
          "indexed": true,
          "internalType": "uint256",
          "name": "id",
          "type": "uint256"
        },
        {
          "indexed": true,
          "internalType": "address",
          "name": "sender",
          "type": "address"
        },
        {
          "indexed": false,
          "internalType": "string",
          "name": "content",
          "type": "string"
        },
        {
          "indexed": false,
          "internalType": "uint256",
          "name": "goalAmount",
          "type": "uint256"
        },
        {
          "indexed": false,
          "internalType": "uint256",
          "name": "deadline",
          "type": "uint256"
        },
        {
          "indexed": false,
          "internalType": "uint256",
          "name": "timestamp",
          "type": "uint256"
        }
      ],
      "name": "FundraiserCreated",
      "type": "event"
    },
    {
      "anonymous": false,
      "inputs": [
        {
          "indexed": false,
          "internalType": "uint8",
          "name": "version",
          "type": "uint8"
        }
      ],
      "name": "Initialized",
      "type": "event"
    },
    {
      "anonymous": false,
      "inputs": [
        {
          "indexed": true,
          "internalType": "address",
          "name": "previousOwner",
          "type": "address"
        },
        {
          "indexed": true,
          "internalType": "address",
          "name": "newOwner",
          "type": "address"
        }
      ],
      "name": "OwnershipTransferred",
      "type": "event"
    },
    {
      "anonymous": false,
      "inputs": [
        {
          "indexed": true,
          "internalType": "uint256",
          "name": "fundraiserId",
          "type": "uint256"
        },
        {
          "indexed": true,
          "internalType": "address",
          "name": "claimer",
          "type": "address"
        },
        {
          "indexed": false,
          "internalType": "uint256",
          "name": "amount",
          "type": "uint256"
        }
      ],
      "name": "RefundClaimed",
      "type": "event"
    },
    {
      "inputs": [],
      "name": "accumulatedFees",
      "outputs": [
        {
          "internalType": "uint256",
          "name": "",
          "type": "uint256"
        }
      ],
      "stateMutability": "view",
      "type": "function"
    },
    {
      "inputs": [],
      "name": "claimFees",
      "outputs": [],
      "stateMutability": "nonpayable",
      "type": "function"
    },
    {
      "inputs": [
        {
          "internalType": "uint256",
          "name": "_fundraiserId",
          "type": "uint256"
        }
      ],
      "name": "claimFundraiserAmount",
      "outputs": [],
      "stateMutability": "nonpayable",
      "type": "function"
    },
    {
      "inputs": [
        {
          "internalType": "uint256",
          "name": "_fundraiserId",
          "type": "uint256"
        }
      ],
      "name": "claimRefund",
      "outputs": [],
      "stateMutability": "nonpayable",
      "type": "function"
    },
    {
      "inputs": [
        {
          "internalType": "uint256",
          "name": "",
          "type": "uint256"
        }
      ],
      "name": "commentById",
      "outputs": [
        {
          "internalType": "uint256",
          "name": "id",
          "type": "uint256"
        },
        {
          "internalType": "address",
          "name": "sender",
          "type": "address"
        },
        {
          "internalType": "string",
          "name": "content",
          "type": "string"
        },
        {
          "internalType": "uint256",
          "name": "fundraiserId",
          "type": "uint256"
        }
      ],
      "stateMutability": "view",
      "type": "function"
    },
    {
      "inputs": [
        {
          "internalType": "uint256",
          "name": "_fundraiserId",
          "type": "uint256"
        }
      ],
      "name": "contribute",
      "outputs": [],
      "stateMutability": "payable",
      "type": "function"
    },
    {
      "inputs": [
        {
          "internalType": "uint256",
          "name": "",
          "type": "uint256"
        },
        {
          "internalType": "address",
          "name": "",
          "type": "address"
        }
      ],
      "name": "contributionAmounts",
      "outputs": [
        {
          "internalType": "uint256",
          "name": "",
          "type": "uint256"
        }
      ],
      "stateMutability": "view",
      "type": "function"
    },
    {
      "inputs": [
        {
          "internalType": "string",
          "name": "_content",
          "type": "string"
        },
        {
          "internalType": "uint256",
          "name": "_fundraiserId",
          "type": "uint256"
        }
      ],
      "name": "createComment",
      "outputs": [],
      "stateMutability": "nonpayable",
      "type": "function"
    },
    {
      "inputs": [
        {
          "internalType": "string",
          "name": "_content",
          "type": "string"
        },
        {
          "internalType": "uint256",
          "name": "_goalAmount",
          "type": "uint256"
        },
        {
          "internalType": "uint256",
          "name": "_deadline",
          "type": "uint256"
        }
      ],
      "name": "createFundraiser",
      "outputs": [],
      "stateMutability": "nonpayable",
      "type": "function"
    },
    {
      "inputs": [
        {
          "internalType": "uint256",
          "name": "",
          "type": "uint256"
        }
      ],
      "name": "fundraiserById",
      "outputs": [
        {
          "internalType": "uint256",
          "name": "id",
          "type": "uint256"
        },
        {
          "internalType": "address",
          "name": "sender",
          "type": "address"
        },
        {
          "internalType": "string",
          "name": "content",
          "type": "string"
        },
        {
          "internalType": "uint256",
          "name": "amount",
          "type": "uint256"
        },
        {
          "internalType": "uint256",
          "name": "goalAmount",
          "type": "uint256"
        },
        {
          "internalType": "uint256",
          "name": "deadline",
          "type": "uint256"
        }
      ],
      "stateMutability": "view",
      "type": "function"
    },
    {
      "inputs": [],
      "name": "initialize",
      "outputs": [],
      "stateMutability": "nonpayable",
      "type": "function"
    },
    {
      "inputs": [],
      "name": "nextCommentId",
      "outputs": [
        {
          "internalType": "uint256",
          "name": "",
          "type": "uint256"
        }
      ],
      "stateMutability": "view",
      "type": "function"
    },
    {
      "inputs": [],
      "name": "nextFundraiserId",
      "outputs": [
        {
          "internalType": "uint256",
          "name": "",
          "type": "uint256"
        }
      ],
      "stateMutability": "view",
      "type": "function"
    },
    {
      "inputs": [],
      "name": "owner",
      "outputs": [
        {
          "internalType": "address",
          "name": "",
          "type": "address"
        }
      ],
      "stateMutability": "view",
      "type": "function"
    },
    {
      "inputs": [],
      "name": "renounceOwnership",
      "outputs": [],
      "stateMutability": "nonpayable",
      "type": "function"
    },
    {
      "inputs": [
        {
          "internalType": "address",
          "name": "newOwner",
          "type": "address"
        }
      ],
      "name": "transferOwnership",
      "outputs": [],
      "stateMutability": "nonpayable",
      "type": "function"
    }
  ],
  "bytecode": "0x608060405234801561001057600080fd5b5061293c806100206000396000f3fe6080604052600436106100f35760003560e01c80638da5cb5b1161008a578063d294f09311610059578063d294f093146102e8578063db108833146102ff578063f2fde38b1461033f578063f72ead1314610368576100f3565b80638da5cb5b1461024d578063c1cbbca714610278578063d0bdacbe14610294578063d0d66d13146102bf576100f3565b80635b7baf64116100c65780635b7baf64146101cd578063715018a6146101f657806373cb8bc01461020d5780638129fc1c14610236576100f3565b8063444480da146100f85780634598775e146101235780634a79105114610165578063587f5ed7146101a2575b600080fd5b34801561010457600080fd5b5061010d610391565b60405161011a91906116ce565b60405180910390f35b34801561012f57600080fd5b5061014a60048036038101906101459190611729565b610397565b60405161015c96959493929190611827565b60405180910390f35b34801561017157600080fd5b5061018c600480360381019061018791906118bb565b61047b565b60405161019991906116ce565b60405180910390f35b3480156101ae57600080fd5b506101b76104a0565b6040516101c491906116ce565b60405180910390f35b3480156101d957600080fd5b506101f460048036038101906101ef9190611729565b6104a6565b005b34801561020257600080fd5b5061020b61078e565b005b34801561021957600080fd5b50610234600480360381019061022f9190611a30565b6107a2565b005b34801561024257600080fd5b5061024b610985565b005b34801561025957600080fd5b50610262610ac3565b60405161026f9190611a9f565b60405180910390f35b610292600480360381019061028d9190611729565b610aed565b005b3480156102a057600080fd5b506102a9610cc5565b6040516102b691906116ce565b60405180910390f35b3480156102cb57600080fd5b506102e660048036038101906102e19190611729565b610ccb565b005b3480156102f457600080fd5b506102fd611001565b005b34801561030b57600080fd5b5061032660048036038101906103219190611729565b6110ae565b6040516103369493929190611aba565b60405180910390f35b34801561034b57600080fd5b5061036660048036038101906103619190611b06565b611186565b005b34801561037457600080fd5b5061038f600480360381019061038a9190611b33565b611209565b005b60995481565b609b6020528060005260406000206000915090508060000154908060010160009054906101000a900473ffffffffffffffffffffffffffffffffffffffff16908060020180546103e690611bbe565b80601f016020809104026020016040519081016040528092919081815260200182805461041290611bbe565b801561045f5780601f106104345761010080835404028352916020019161045f565b820191906000526020600020905b81548152906001019060200180831161044257829003601f168201915b5050505050908060030154908060040154908060050154905086565b609c602052816000526040600020602052806000526040600020600091509150505481565b60975481565b6104ae611433565b80600073ffffffffffffffffffffffffffffffffffffffff16609b600083815260200190815260200160002060010160009054906101000a900473ffffffffffffffffffffffffffffffffffffffff1673ffffffffffffffffffffffffffffffffffffffff1603610554576040517f08c379a000000000000000000000000000000000000000000000000000000000815260040161054b90611c3b565b60405180910390fd5b6000609b6000848152602001908152602001600020905080600501544210156105b2576040517f08c379a00000000000000000000000000000000000000000000000000000000081526004016105a990611ca7565b60405180910390fd5b80600401548160030154106105fc576040517f08c379a00000000000000000000000000000000000000000000000000000000081526004016105f390611d13565b60405180910390fd5b6000609c600085815260200190815260200160002060003373ffffffffffffffffffffffffffffffffffffffff1673ffffffffffffffffffffffffffffffffffffffff16815260200190815260200160002054905060008111610694576040517f08c379a000000000000000000000000000000000000000000000000000000000815260040161068b90611da5565b60405180910390fd5b6000609c600086815260200190815260200160002060003373ffffffffffffffffffffffffffffffffffffffff1673ffffffffffffffffffffffffffffffffffffffff168152602001908152602001600020819055503373ffffffffffffffffffffffffffffffffffffffff166108fc829081150290604051600060405180830381858888f19350505050158015610730573d6000803e3d6000fd5b503373ffffffffffffffffffffffffffffffffffffffff16847ff3f402280ef0a7905e124aa621b65eaeb2725c343e8b36d398ed78c29daf285c8360405161077891906116ce565b60405180910390a350505061078b611482565b50565b61079661148c565b6107a0600061150a565b565b60008351036107e6576040517f08c379a00000000000000000000000000000000000000000000000000000000081526004016107dd90611e11565b60405180910390fd5b428111610828576040517f08c379a000000000000000000000000000000000000000000000000000000000815260040161081f90611e7d565b60405180910390fd5b60006040518060c0016040528060995481526020013373ffffffffffffffffffffffffffffffffffffffff1681526020018581526020016000815260200184815260200183815250905080609b600060995481526020019081526020016000206000820151816000015560208201518160010160006101000a81548173ffffffffffffffffffffffffffffffffffffffff021916908373ffffffffffffffffffffffffffffffffffffffff16021790555060408201518160020190816108ee9190612049565b50606082015181600301556080820151816004015560a082015181600501559050503373ffffffffffffffffffffffffffffffffffffffff166099547fa71be04238353976e50f5b802c1597024c459940e6eb9274c81a65fb7122c3048686864260405161095f949392919061211b565b60405180910390a36099600081548092919061097a90612196565b919050555050505050565b60008060019054906101000a900460ff161590508080156109b65750600160008054906101000a900460ff1660ff16105b806109e357506109c5306115d0565b1580156109e25750600160008054906101000a900460ff1660ff16145b5b610a22576040517f08c379a0000000000000000000000000000000000000000000000000000000008152600401610a1990612250565b60405180910390fd5b60016000806101000a81548160ff021916908360ff1602179055508015610a5f576001600060016101000a81548160ff0219169083151502179055505b610a676115f3565b8015610ac05760008060016101000a81548160ff0219169083151502179055507f7f26b83ff96e1f2b6a682f133852f6798a09c465da95921460cefb38474024986001604051610ab791906122b8565b60405180910390a15b50565b6000603360009054906101000a900473ffffffffffffffffffffffffffffffffffffffff16905090565b60003411610b30576040517f08c379a0000000000000000000000000000000000000000000000000000000008152600401610b279061231f565b60405180910390fd5b80600073ffffffffffffffffffffffffffffffffffffffff16609b600083815260200190815260200160002060010160009054906101000a900473ffffffffffffffffffffffffffffffffffffffff1673ffffffffffffffffffffffffffffffffffffffff1603610bd6576040517f08c379a0000000000000000000000000000000000000000000000000000000008152600401610bcd90611c3b565b60405180910390fd5b6000609b6000848152602001908152602001600020905034816003016000828254610c01919061233f565b9250508190555034609c600085815260200190815260200160002060003373ffffffffffffffffffffffffffffffffffffffff1673ffffffffffffffffffffffffffffffffffffffff1681526020019081526020016000206000828254610c68919061233f565b925050819055503373ffffffffffffffffffffffffffffffffffffffff16837f6ff14b3a8f5fae2820852e97781b139d374bfca25145c281486dc4484948428f3442604051610cb8929190612373565b60405180910390a3505050565b60985481565b610cd3611433565b80600073ffffffffffffffffffffffffffffffffffffffff16609b600083815260200190815260200160002060010160009054906101000a900473ffffffffffffffffffffffffffffffffffffffff1673ffffffffffffffffffffffffffffffffffffffff1603610d79576040517f08c379a0000000000000000000000000000000000000000000000000000000008152600401610d7090611c3b565b60405180910390fd5b6000609b600084815260200190815260200160002090503373ffffffffffffffffffffffffffffffffffffffff168160010160009054906101000a900473ffffffffffffffffffffffffffffffffffffffff1673ffffffffffffffffffffffffffffffffffffffff1614610e22576040517f08c379a0000000000000000000000000000000000000000000000000000000008152600401610e199061240e565b60405180910390fd5b6000816003015403610e69576040517f08c379a0000000000000000000000000000000000000000000000000000000008152600401610e609061247a565b60405180910390fd5b8060050154421015610eb0576040517f08c379a0000000000000000000000000000000000000000000000000000000008152600401610ea79061250c565b60405180910390fd5b806004015481600301541015610efb576040517f08c379a0000000000000000000000000000000000000000000000000000000008152600401610ef290612578565b60405180910390fd5b60008160030154905060006064600883610f159190612598565b610f1f9190612609565b90508060976000828254610f33919061233f565b925050819055508082610f46919061263a565b9150600083600301549050600084600301819055503373ffffffffffffffffffffffffffffffffffffffff166108fc829081150290604051600060405180830381858888f19350505050158015610fa1573d6000803e3d6000fd5b503373ffffffffffffffffffffffffffffffffffffffff16867f28197a6d6396d170fe2ee8958092ed5b6024c358b8891854ccc8d407383a49d785604051610fe991906116ce565b60405180910390a35050505050610ffe611482565b50565b61100961148c565b60006097541161104e576040517f08c379a0000000000000000000000000000000000000000000000000000000008152600401611045906126ba565b60405180910390fd5b600060975490506000609781905550611065610ac3565b73ffffffffffffffffffffffffffffffffffffffff166108fc829081150290604051600060405180830381858888f193505050501580156110aa573d6000803e3d6000fd5b5050565b609a6020528060005260406000206000915090508060000154908060010160009054906101000a900473ffffffffffffffffffffffffffffffffffffffff16908060020180546110fd90611bbe565b80601f016020809104026020016040519081016040528092919081815260200182805461112990611bbe565b80156111765780601f1061114b57610100808354040283529160200191611176565b820191906000526020600020905b81548152906001019060200180831161115957829003601f168201915b5050505050908060030154905084565b61118e61148c565b600073ffffffffffffffffffffffffffffffffffffffff168173ffffffffffffffffffffffffffffffffffffffff16036111fd576040517f08c379a00000000000000000000000000000000000000000000000000000000081526004016111f49061274c565b60405180910390fd5b6112068161150a565b50565b600082510361124d576040517f08c379a000000000000000000000000000000000000000000000000000000000815260040161124490611e11565b60405180910390fd5b600081146112fb57600073ffffffffffffffffffffffffffffffffffffffff16609b600083815260200190815260200160002060010160009054906101000a900473ffffffffffffffffffffffffffffffffffffffff1673ffffffffffffffffffffffffffffffffffffffff16036112fa576040517f08c379a00000000000000000000000000000000000000000000000000000000081526004016112f190611c3b565b60405180910390fd5b5b6000604051806080016040528060985481526020013373ffffffffffffffffffffffffffffffffffffffff16815260200184815260200183815250905080609a600060985481526020019081526020016000206000820151816000015560208201518160010160006101000a81548173ffffffffffffffffffffffffffffffffffffffff021916908373ffffffffffffffffffffffffffffffffffffffff16021790555060408201518160020190816113b49190612049565b50606082015181600301559050503373ffffffffffffffffffffffffffffffffffffffff16826098547f421f804a0b21938816743b4f5bf6076d33137a72a0eaebd93abd7e2fd7ac2071864260405161140e92919061276c565b60405180910390a46098600081548092919061142990612196565b9190505550505050565b600260655403611478576040517f08c379a000000000000000000000000000000000000000000000000000000000815260040161146f906127e8565b60405180910390fd5b6002606581905550565b6001606581905550565b61149461164c565b73ffffffffffffffffffffffffffffffffffffffff166114b2610ac3565b73ffffffffffffffffffffffffffffffffffffffff1614611508576040517f08c379a00000000000000000000000000000000000000000000000000000000081526004016114ff90612854565b60405180910390fd5b565b6000603360009054906101000a900473ffffffffffffffffffffffffffffffffffffffff16905081603360006101000a81548173ffffffffffffffffffffffffffffffffffffffff021916908373ffffffffffffffffffffffffffffffffffffffff1602179055508173ffffffffffffffffffffffffffffffffffffffff168173ffffffffffffffffffffffffffffffffffffffff167f8be0079c531659141344cd1fd0a4f28419497f9722a3daafe3b4186f6b6457e060405160405180910390a35050565b6000808273ffffffffffffffffffffffffffffffffffffffff163b119050919050565b600060019054906101000a900460ff16611642576040517f08c379a0000000000000000000000000000000000000000000000000000000008152600401611639906128e6565b60405180910390fd5b61164a611654565b565b600033905090565b600060019054906101000a900460ff166116a3576040517f08c379a000000000000000000000000000000000000000000000000000000000815260040161169a906128e6565b60405180910390fd5b6116b36116ae61164c565b61150a565b565b6000819050919050565b6116c8816116b5565b82525050565b60006020820190506116e360008301846116bf565b92915050565b6000604051905090565b600080fd5b600080fd5b611706816116b5565b811461171157600080fd5b50565b600081359050611723816116fd565b92915050565b60006020828403121561173f5761173e6116f3565b5b600061174d84828501611714565b91505092915050565b600073ffffffffffffffffffffffffffffffffffffffff82169050919050565b600061178182611756565b9050919050565b61179181611776565b82525050565b600081519050919050565b600082825260208201905092915050565b60005b838110156117d15780820151818401526020810190506117b6565b60008484015250505050565b6000601f19601f8301169050919050565b60006117f982611797565b61180381856117a2565b93506118138185602086016117b3565b61181c816117dd565b840191505092915050565b600060c08201905061183c60008301896116bf565b6118496020830188611788565b818103604083015261185b81876117ee565b905061186a60608301866116bf565b61187760808301856116bf565b61188460a08301846116bf565b979650505050505050565b61189881611776565b81146118a357600080fd5b50565b6000813590506118b58161188f565b92915050565b600080604083850312156118d2576118d16116f3565b5b60006118e085828601611714565b92505060206118f1858286016118a6565b9150509250929050565b600080fd5b600080fd5b7f4e487b7100000000000000000000000000000000000000000000000000000000600052604160045260246000fd5b61193d826117dd565b810181811067ffffffffffffffff8211171561195c5761195b611905565b5b80604052505050565b600061196f6116e9565b905061197b8282611934565b919050565b600067ffffffffffffffff82111561199b5761199a611905565b5b6119a4826117dd565b9050602081019050919050565b82818337600083830152505050565b60006119d36119ce84611980565b611965565b9050828152602081018484840111156119ef576119ee611900565b5b6119fa8482856119b1565b509392505050565b600082601f830112611a1757611a166118fb565b5b8135611a278482602086016119c0565b91505092915050565b600080600060608486031215611a4957611a486116f3565b5b600084013567ffffffffffffffff811115611a6757611a666116f8565b5b611a7386828701611a02565b9350506020611a8486828701611714565b9250506040611a9586828701611714565b9150509250925092565b6000602082019050611ab46000830184611788565b92915050565b6000608082019050611acf60008301876116bf565b611adc6020830186611788565b8181036040830152611aee81856117ee565b9050611afd60608301846116bf565b95945050505050565b600060208284031215611b1c57611b1b6116f3565b5b6000611b2a848285016118a6565b91505092915050565b60008060408385031215611b4a57611b496116f3565b5b600083013567ffffffffffffffff811115611b6857611b676116f8565b5b611b7485828601611a02565b9250506020611b8585828601611714565b9150509250929050565b7f4e487b7100000000000000000000000000000000000000000000000000000000600052602260045260246000fd5b60006002820490506001821680611bd657607f821691505b602082108103611be957611be8611b8f565b5b50919050565b7f46756e64726169736572206e6f7420666f756e64000000000000000000000000600082015250565b6000611c256014836117a2565b9150611c3082611bef565b602082019050919050565b60006020820190508181036000830152611c5481611c18565b9050919050565b7f46756e64726169736572206973207374696c6c20616374697665000000000000600082015250565b6000611c91601a836117a2565b9150611c9c82611c5b565b602082019050919050565b60006020820190508181036000830152611cc081611c84565b9050919050565b7f46756e6472616973696e6720676f616c20776173207265616368656400000000600082015250565b6000611cfd601c836117a2565b9150611d0882611cc7565b602082019050919050565b60006020820190508181036000830152611d2c81611cf0565b9050919050565b7f4e6f20636f6e747269627574696f6e7320666f756e6420666f722073656e646560008201527f7200000000000000000000000000000000000000000000000000000000000000602082015250565b6000611d8f6021836117a2565b9150611d9a82611d33565b604082019050919050565b60006020820190508181036000830152611dbe81611d82565b9050919050565b7f436f6e74656e7420697320656d70747900000000000000000000000000000000600082015250565b6000611dfb6010836117a2565b9150611e0682611dc5565b602082019050919050565b60006020820190508181036000830152611e2a81611dee565b9050919050565b7f446561646c696e65206d75737420626520696e20746865206675747572650000600082015250565b6000611e67601e836117a2565b9150611e7282611e31565b602082019050919050565b60006020820190508181036000830152611e9681611e5a565b9050919050565b60008190508160005260206000209050919050565b60006020601f8301049050919050565b600082821b905092915050565b600060088302611eff7fffffffffffffffffffffffffffffffffffffffffffffffffffffffffffffffff82611ec2565b611f098683611ec2565b95508019841693508086168417925050509392505050565b6000819050919050565b6000611f46611f41611f3c846116b5565b611f21565b6116b5565b9050919050565b6000819050919050565b611f6083611f2b565b611f74611f6c82611f4d565b848454611ecf565b825550505050565b600090565b611f89611f7c565b611f94818484611f57565b505050565b5b81811015611fb857611fad600082611f81565b600181019050611f9a565b5050565b601f821115611ffd57611fce81611e9d565b611fd784611eb2565b81016020851015611fe6578190505b611ffa611ff285611eb2565b830182611f99565b50505b505050565b600082821c905092915050565b600061202060001984600802612002565b1980831691505092915050565b6000612039838361200f565b9150826002028217905092915050565b61205282611797565b67ffffffffffffffff81111561206b5761206a611905565b5b6120758254611bbe565b612080828285611fbc565b600060209050601f8311600181146120b357600084156120a1578287015190505b6120ab858261202d565b865550612113565b601f1984166120c186611e9d565b60005b828110156120e9578489015182556001820191506020850194506020810190506120c4565b868310156121065784890151612102601f89168261200f565b8355505b6001600288020188555050505b505050505050565b6000608082019050818103600083015261213581876117ee565b905061214460208301866116bf565b61215160408301856116bf565b61215e60608301846116bf565b95945050505050565b7f4e487b7100000000000000000000000000000000000000000000000000000000600052601160045260246000fd5b60006121a1826116b5565b91507fffffffffffffffffffffffffffffffffffffffffffffffffffffffffffffffff82036121d3576121d2612167565b5b600182019050919050565b7f496e697469616c697a61626c653a20636f6e747261637420697320616c72656160008201527f647920696e697469616c697a6564000000000000000000000000000000000000602082015250565b600061223a602e836117a2565b9150612245826121de565b604082019050919050565b600060208201905081810360008301526122698161222d565b9050919050565b6000819050919050565b600060ff82169050919050565b60006122a261229d61229884612270565b611f21565b61227a565b9050919050565b6122b281612287565b82525050565b60006020820190506122cd60008301846122a9565b92915050565b7f4d7573742073656e642045544800000000000000000000000000000000000000600082015250565b6000612309600d836117a2565b9150612314826122d3565b602082019050919050565b60006020820190508181036000830152612338816122fc565b9050919050565b600061234a826116b5565b9150612355836116b5565b925082820190508082111561236d5761236c612167565b5b92915050565b600060408201905061238860008301856116bf565b61239560208301846116bf565b9392505050565b7f4f6e6c79207468652063726561746f72206f66207468652046756e647261697360008201527f65722063616e20636c61696d0000000000000000000000000000000000000000602082015250565b60006123f8602c836117a2565b91506124038261239c565b604082019050919050565b60006020820190508181036000830152612427816123eb565b9050919050565b7f4e6f20616d6f756e7420746f20636c61696d0000000000000000000000000000600082015250565b60006124646012836117a2565b915061246f8261242e565b602082019050919050565b6000602082019050818103600083015261249381612457565b9050919050565b7f46756e6472616973657220686173206e6f74207265616368656420697473206460008201527f6561646c696e6500000000000000000000000000000000000000000000000000602082015250565b60006124f66027836117a2565b91506125018261249a565b604082019050919050565b60006020820190508181036000830152612525816124e9565b9050919050565b7f46756e6472616973696e6720676f616c206e6f74207265616368656400000000600082015250565b6000612562601c836117a2565b915061256d8261252c565b602082019050919050565b6000602082019050818103600083015261259181612555565b9050919050565b60006125a3826116b5565b91506125ae836116b5565b92508282026125bc816116b5565b915082820484148315176125d3576125d2612167565b5b5092915050565b7f4e487b7100000000000000000000000000000000000000000000000000000000600052601260045260246000fd5b6000612614826116b5565b915061261f836116b5565b92508261262f5761262e6125da565b5b828204905092915050565b6000612645826116b5565b9150612650836116b5565b925082820390508181111561266857612667612167565b5b92915050565b7f4e6f206665657320746f20636c61696d00000000000000000000000000000000600082015250565b60006126a46010836117a2565b91506126af8261266e565b602082019050919050565b600060208201905081810360008301526126d381612697565b9050919050565b7f4f776e61626c653a206e6577206f776e657220697320746865207a65726f206160008201527f6464726573730000000000000000000000000000000000000000000000000000602082015250565b60006127366026836117a2565b9150612741826126da565b604082019050919050565b6000602082019050818103600083015261276581612729565b9050919050565b6000604082019050818103600083015261278681856117ee565b905061279560208301846116bf565b9392505050565b7f5265656e7472616e637947756172643a207265656e7472616e742063616c6c00600082015250565b60006127d2601f836117a2565b91506127dd8261279c565b602082019050919050565b60006020820190508181036000830152612801816127c5565b9050919050565b7f4f776e61626c653a2063616c6c6572206973206e6f7420746865206f776e6572600082015250565b600061283e6020836117a2565b915061284982612808565b602082019050919050565b6000602082019050818103600083015261286d81612831565b9050919050565b7f496e697469616c697a61626c653a20636f6e7472616374206973206e6f74206960008201527f6e697469616c697a696e67000000000000000000000000000000000000000000602082015250565b60006128d0602b836117a2565b91506128db82612874565b604082019050919050565b600060208201905081810360008301526128ff816128c3565b905091905056fea26469706673582212205d5399186a3fe876513362e0a05441ef507a93d0c33b298e2fd51d209cd175f264736f6c63430008130033",
  "linkReferences": {},
  "deployedLinkReferences": {}
}